:100000000C942A000C943F000C943F000C943F0089
:100010000C943F000C943F000C943F000C943F0064
:100020000C943F000C943F000C943F000C943F0054
:100030000C943F000C943F000C943F000C943F0044
:100040000C943F000C943F000C943F000C943F0034
:100050000C943F0011241FBECFE5D8E0DEBFCDBF1A
:1000600011E0A0E6B0E0EEE5F8E002C005900D92E8
:10007000AA34B107D9F70E9415020C942D040C94F0
:1000800000009C0182E083BF86EF08C082BF98B762
:10009000916098BFA89508B600FEFDCF21503109A8
:1000A000A8F713BE0895E82F14BA15BA85B321E056
:1000B00030E0A9010E2E02C0440F551F0A94E2F74A
:1000C000482B45BB94B36C5F7F4F02C0220F331F98
:1000D0006A95E2F7922B94BB95B32095292325BB13
:1000E00093B3892F90E002C095958795EA95E2F742
:1000F00021E0822781700895CF92DF92EF92FF92E4
:100100000F931F93CF93DF9300E010E0C12CD12C0D
:1001100016C0FC2EBE01C8010E945300882331F096
:10012000F3948E2D880F880F8F0D0DC02196C4304B
:10013000D10579F70F5F1F4F0430110521F0E02E34
:10014000CC2DDD2DE6CFDF91CF911F910F91FF9048
:10015000EF90DF90CF9008954F925F926F927F92D1
:10016000AF92BF92CF92DF92EF92FF920F931F93C5
:10017000CF93DF93FC01CB0169017A01B8010E94A2
:100180000504161617068CF58B01BF01072E000C0F
:10019000880B990B0E940C032B013C01A7019601CF
:1001A00060E070E080E89FE30E946E029B01AC017A
:1001B000C301B2010E9498030E94DB025B01C0E010
:1001C000D0E0C39AC5010E944100C398A7019601DF
:1001D000C301B2010E9498030E94DB02CB010E947E
:1001E00041002196C017D10761F7DF91CF911F9190
:1001F0000F91FF90EF90DF90CF90BF90AF907F90E6
:100200006F905F904F9008954F925F926F927F92A0
:100210008F929F92AF92BF92CF92DF92EF92FF9216
:100220000F931F93CF93DF93161617065CF54801C3
:1002300029013A015B01C82FD92FE12CF12C10C004
:100240001E141F0464F4F60124813581808191819C
:100250002817390721F485E090E00E944100249698
:100260006E016A817B81888199818401A301920159
:10027000880F991F0E94AC00FFEFEF1AFF0AEA14E3
:10028000FB04F1F6DF91CF911F910F91FF90EF905A
:10029000DF90CF90BF90AF909F908F907F906F90A6
:1002A0005F904F9008950F931F93CF93DF93CDB737
:1002B000DEB7C454D1090FB6F894DEBF0FBECDBF70
:1002C0008C0194E4E0E6F0E0DE01119601900D92DD
:1002D0009A95E1F79A01AB0161E170E0CE010196D8
:1002E0000E940401CC5BDF4F0FB6F894DEBF0FBE57
:1002F000CDBFDF91CF911F910F9108950F931F9361
:10030000CF93DF93CDB7DEB7CC58D1090FB6F894B1
:10031000DEBF0FBECDBF8C019CE8E4EAF0E0DE0159
:10032000119601900D929A95E1F79A01AB0163E263
:1003300070E0CE0101960E940401C457DF4F0FB652
:10034000F894DEBF0FBECDBFDF91CF911F910F910B
:100350000895662311F0C09A01C0C098C19882BB6D
:100360008FEF81BBC29A000000000000C298089580
:10037000C098C19A11BA90B3C29A00000000000060
:1003800011BA90B3C29899239CF30E94A9010895D1
:10039000B89AB99ABA9A80E190E00E94410060E070
:1003A00080E30E94A90185E090E00E94410060E0A6
:1003B00080E30E94A90181E090E00E94410060E09A
:1003C0008CE30E94B80160E08CE00E94B80160E01C
:1003D00086E00E94B80160E081E00E94B8010895C3
:1003E000CF93C62F98E2899FC00D112460E082E070
:1003F0000E94B801CC2331F060E084E10E94B80192
:10040000C150D1F7CF910895CF93DF93EC0121969E
:10041000FC018081882331F061E00E94B80189915C
:100420008111FACFDF91CF91089588E087BB0E94B8
:10043000C80160E080E00E94F00180E391E00E944A
:10044000040260E081E00E94F00181E491E00E94FA
:1004500004020E947C00C82F813049F440E050E043
:1004600060E07FE381E090E00E94530116C082309B
:1004700049F440E050E060E07FE381E090E00E94DA
:100480007E0116C0853049F444EA50E76DE77FE30A
:1004900081E090E00E94530116C0C63049F444EA5E
:1004A00050E76DE77FE381E090E00E947E01D1CFCD
:1004B000C93049F440E050E060E07FE382E090E042
:1004C0000E945301C6CFCA3021F640E050E060E000
:1004D0007FE382E090E00E947E01BBCF5058BB27B3
:1004E000AA270E9486020C945E030E94500338F0F3
:1004F0000E94570320F039F49F3F19F426F40C941E
:100500004D030EF4E095E7FB0C944703E92F0E949E
:100510006F0358F3BA17620773078407950720F033
:1005200079F4A6F50C9491030EF4E0950B2EBA2FF6
:10053000A02D0B01B90190010C01CA01A0011124E9
:10054000FF27591B99F0593F50F4503E68F11A1695
:10055000F040A22F232F342F4427585FF3CF469526
:1005600037952795A795F0405395C9F77EF41F1648
:10057000BA0B620B730B840BBAF09150A1F0FF0F12
:10058000BB1F661F771F881FC2F70EC0BA0F621FFE
:10059000731F841F48F4879577956795B795F795EE
:1005A0009E3F08F0B0CF9395880F08F09927EE0F83
:1005B0009795879508950E94770388F09F5798F044
:1005C000B92F9927B751B0F0E1F0660F771F881F58
:1005D000991F1AF0BA95C9F714C0B13091F00E9472
:1005E0009103B1E008950C949103672F782F882729
:1005F000B85F39F0B93FCCF3869577956795B39599
:10060000D9F73EF490958095709561957F4F8F4F07
:100610009F4F0895E89409C097FB3EF4909580950C
:10062000709561957F4F8F4F9F4F9923A9F0F92FB8
:1006300096E9BB279395F695879577956795B79536
:10064000F111F8CFFAF4BB0F11F460FF1BC06F5F1C
:100650007F4F8F4F9F4F16C0882311F096E911C02E
:10066000772321F09EE8872F762F05C0662371F04F
:1006700096E8862F70E060E02AF09A95660F771F63
:10068000881FDAF7880F9695879597F9089597F957
:100690009F6780E870E060E008959FEF80EC089528
:1006A00000240A9416161706180609060895002451
:1006B0000A9412161306140605060895092E0394CB
:1006C000000C11F4882352F0BB0F40F4BF2B11F43F
:1006D00060FF04C06F5F7F4F8F4F9F4F089557FD9E
:1006E0009058440F551F59F05F3F71F04795880FA0
:1006F00097FB991F61F09F3F79F087950895121637
:1007000013061406551FF2CF4695F1DF08C01616E2
:1007100017061806991FF1CF869571056105089493
:100720000895E894BB2766277727CB0197F90895AA
:100730000E94AB030C945E030E94500338F00E94A9
:10074000570320F0952311F00C9447030C944D03AC
:1007500011240C9492030E946F0370F3959FC1F3D0
:10076000950F50E0551F629FF001729FBB27F00D5F
:10077000B11D639FAA27F00DB11DAA1F649F6627B4
:10078000B00DA11D661F829F2227B00DA11D621F03
:10079000739FB00DA11D621F839FA00D611D221FBD
:1007A000749F3327A00D611D231F849F600D211DA1
:1007B000822F762F6A2F11249F5750409AF0F1F024
:1007C00088234AF0EE0FFF1FBB1F661F771F881F8D
:1007D00091505040A9F79E3F510580F00C9447037B
:1007E0000C9492035F3FE4F3983ED4F3869577959B
:1007F0006795B795F795E7959F5FC1F7FE2B880F33
:10080000911D9695879597F9089597FB072E16F4F5
:10081000009407D077FD09D00E94190407FC05D089
:100820003EF4909581959F4F0895709561957F4F07
:100830000895AA1BBB1B51E107C0AA1FBB1FA61727
:10084000B70710F0A61BB70B881F991F5A95A9F779
:0E08500080959095BC01CD010895F894FFCFDE
:10085E006500ED017100B8017F0010036500ED0128
:10086E007100B8017F0010037F00C4007F00C40038
:10087E007F00C4007F00C4007100DC007100DC004A
:10088E007100DC007100DC006500ED017100B80143
:10089E007F001003BF000501BF0005017F00880126
:1008AE007F0088017100B8017100B8017F0010034C
:1008BE008F005D018F005D0197004901970049018E
:1008CE00AA002501AA002501BF000B027F008801A6
:1008DE007F0088018F005D018F005D019700490147
:1008EE0097004901AA004B02BF000501BF00050198
:1008FE007F0088017F0088017100B8017100B80186
:10090E007F0010038F005D018F005D01970049018C
:10091E0097004901AA002501AA002501BF000B027C
:10092E00313A486F742043726F73732042756E7341
:0A093E0000323A41424327730000E3
:00000001FF
