S016000050726F6A656374325F436C6F636B2E73726563BA
S11300000C942A000C9447000C9447000C9447006D
S11300100C9447000C9447000C9447000C94470040
S11300200C9447000C9447000C9447000C94470030
S11300300C9447000C9447000C9447000C94470020
S11300400C9447000C9447000C9447000C94470010
S11300500C94470011241FBECFE5D8E0DEBFCDBF0E
S113006010E0A0E6B0E0ECE9F1E102C005900D92E9
S1130070AC3FB107D9F721E0ACEFB0E001C01D926D
S1130080AD30B207E1F70E94BC050C94CC080C9487
S1130090000080916600909167008A3091050CF011
S11300A063C020916800309169002A3031050CF05A
S11300B00AC140916A0050916B004A3051050CF01E
S11300C0FAC05F934F933F932F939F938F938CE644
S11300D090E09F938F938CEF90E09F938F930E9477
S11300E0F4058DB79EB70A960FB6F8949EBF0FBE5F
S11300F08DBFDCC05F934F933F932F939F938F9358
S113010088E790E09F938F938CEF90E09F938F9379
S11301100E94F4058DB79EB70A960FB6F8949EBF59
S11301200FBE8DBFC3C040916A0050916B004A302E
S113013051050CF45BC05F934F933F932F939F93B0
S11301408F9384E890E09F938F938CEF90E09F933C
S11301508F930E94F4058DB79EB70A960FB6F89454
S11301609EBF0FBE8DBFA2C0209168003091690070
S11301702A3031050CF0B5C040916A0050916B00F3
S11301804A3051050CF4A8C05F934F933F932F93CB
S11301909F938F9380E990E09F938F938CEF90E0EF
S11301A09F938F930E94F4058DB79EB70A960FB65E
S11301B0F8949EBF0FBE8DBF79C05F934F933F935A
S11301C02F939F938F938CE990E09F938F938CEF61
S11301D090E09F938F930E94F4058DB79EB70A9683
S11301E00FB6F8949EBF0FBE8DBF60C040916A00E9
S11301F050916B004A305105CCF55F934F933F9378
S11302002F939F938F9388EA90E09F938F938CEF23
S113021090E09F938F930E94F4058DB79EB70A9642
S11302200FB6F8949EBF0FBE8DBF40C040916A00C8
S113023050916B004A305105CCF45F934F933F9338
S11302402F939F938F9384EB90E09F938F938CEFE6
S113025090E09F938F930E94F4058DB79EB70A9602
S11302600FB6F8949EBF0FBE8DBF20C020916B00C7
S11302702F9320916A002F93209169002F9320914E
S113028068002F939F938F9380EC90E09F938F93BC
S11302908CEF90E09F938F930E94F4058DB79EB7E7
S11302A00A960FB6F8949EBF0FBE8DBF8CEF90E0F8
S11302B00E949905089540916A0050916B004A305C
S11302C0510534F017CF2A3031050CF02CCFCECFA6
S11302D02A3031055CF28ACF2A3031050CF4A6CFDE
S11302E0C5CF40916A0050916B004A3051050CF023
S11302F0BDCF63CF80916400909165008A309105F1
S11303000CF041C020916200309163002A30310525
S1130310ECF4409161004F93409160004F933F9300
S11303202F939F938F938CEC90E09F938F938CEFFC
S113033090E09F938F930E94F4058DB79EB70A9621
S11303400FB6F8949EBF0FBE8DBF5DC04091610093
S11303504F93409160004F933F932F939F938F93BC
S113036088ED90E09F938F938CEF90E09F938F9311
S11303700E94F4058DB79EB70A960FB6F8949EBFF7
S11303800FBE8DBF40C020916200309163002A30BF
S11303903105ECF4409161004F93409160004F931C
S11303A03F932F939F938F9384EE90E09F938F932B
S11303B08CEF90E09F938F930E94F4058DB79EB7C6
S11303C00A960FB6F8949EBF0FBE8DBF1CC0409115
S11303D061004F93409160004F933F932F939F93FD
S11303E08F9380EF90E09F938F938CEF90E09F9397
S11303F08F930E94F4058DB79EB70A960FB6F894B2
S11304009EBF0FBE8DBF60E080E00E9485058CEF2B
S113041090E00E94990560E081E00E9485050895BE
S11304209C018D7F81309105D9F02530310581F013
S1130430C9010797029778F02A30310579F051E025
S113044040E02C30310509F050E0852F942F0895B9
S113045081E090E0089581E090E0089581E090E0EB
S113046008958D7F8430910541F021E030E00997B3
S113047009F020E0822F932F089581E090E0089501
S11304809C0183709927892B39F4C90164E670E0D3
S11304900E94CC05892B69F4C90160E971E00E94CE
S11304A0CC0521E030E0892B09F020E0822F932F46
S11304B0089581E090E008950F931F93CF93DF9305
S11304C0C0916200D0916300CF31D1050CF100914D
S11304D0640010916500C8010E941002892BC1F0CC
S11304E081E090E090936300809362000C301105EA
S11304F009F057C090936500809364008091600078
S1130500909161000196909361008093600049C0CE
S1130510CE31D105B4F00091640010916500C8019A
S11305200E943102892B69F081E090E0909363008E
S1130530809362000F5F1F4F109365000093640067
S113054030C08091640090916500029729F58091F4
S11305506000909161000E944002892B89F1CD31A5
S1130560D105D4F081E090E0909363008093620021
S113057083E090E0909365008093640012C081E072
S113058090E0909363008093620083E090E0909306
S113059065008093640005C02196D0936300C093E6
S11305A0620040916000509161006091620070911E
S11305B0630080916400909165000E947A0104C0F8
S11305C0CC31D1054CF3DBCFDF91CF911F910F914B
S11305D0089580916400909165008C30910539F400
S11305E081E090E090936500809364000895019603
S11305F090936500809364000895809164009091C5
S113060065008130910539F48CE090E090936500A9
S1130610809364000895019790936500809364002B
S11306200895CF93DF93C0916200D0916300CF31DE
S1130630D1057CF080916400909165000E941002C5
S1130640892B39F081E090E09093630080936200FD
S11306503BC0CE31D1057CF080916400909165005F
S11306600E943102892B39F081E090E0909363007D
S11306708093620029C08091640090916500029784
S1130680C9F480916000909161000E944002892B1E
S1130690B9F0CD31D10574F081E090E0909363001E
S11306A08093620011C081E090E090936300809396
S11306B062000AC02196D0936300C093620004C014
S11306C0CC31D105BCF3EFCFDF91CF9108950F93D7
S11306D01F93CF93DF93C0916200D0916300C13028
S11306E0D105E1F40091640010916500C8010E94F5
S11306F01002892B39F08FE190E09093630080938E
S1130700620035C0C8010E943102892B39F08EE1A4
S113071090E0909363008093620029C0809164000C
S1130720909165000297C9F48091600090916100F6
S11307300E944002892BB9F0C130D10571F48DE1DA
S113074090E0909363008093620011C08CE190E08C
S113075090936300809362000AC02197D093630052
S1130760C093620004C0C130D105B9F7EFCFDF9167
S1130770CF911F910F910895809160009091610035
S113078001969093610080936000089580916000C9
S113079090916100019790936100809360000895A7
S11307A080916600909167008731910529F4109239
S11307B067001092660008950196909367008093F5
S11307C0660008958091660090916700009739F45F
S11307D087E190E090936700809366000895019705
S11307E090936700809366000895809168009091CB
S11307F069008B33910529F4109269001092680006
S113080008950196909369008093680008958091FB
S1130810680090916900009739F48BE390E090931D
S1130820690080936800089501979093690080930C
S11308306800089580916A0090916B008B33910554
S113084029F410926B0010926A0008950196909317
S11308506B0080936A00089580916A0090916B0008
S1130860009739F48BE390E090936B0080936A00D7
S11308700895019790936B0080936A0008958130E6
S113088019F40E94E9020895823019F40E94FD02CD
S11308900895833019F40E9411030895843019F4E3
S11308A00E9467030895853019F40E94BC030895DB
S11308B0863019F40E94C6030895873019F40E9403
S11308C0D0030895883019F40E94E2030895893012
S11308D019F40E94F50308958A3019F40E9407045C
S11308E008958B3019F40E941A0408958C3011F481
S11308F00E942C040895E82F14BA15BA85B321E098
S113090030E0A9010E2E02C0440F551F0A94E2F7ED
S1130910482B45BB94B36C5F7F4F02C0220F331F3B
S11309206A95E2F7922B94BB95B32095292325BBB6
S113093093B3892F90E002C095958795EA95E2F7E5
S113094021E0822781700895CF92DF92EF92FF9287
S11309500F931F93CF93DF9300E010E0C12CD12CB1
S113096016C0FC2EBE01C8010E947B04882331F00E
S1130970F3948E2D880F880F8F0D0DC02196C430EF
S1130980D10579F70F5F1F4F0430110521F0E02ED8
S1130990CC2DDD2DE6CFDF91CF911F910F91FF90EC
S11309A0EF90DF90CF900895CF930E94A404C82FB6
S11309B00E947A0120916A0030916B002F5F3F4FB3
S11309C02C33310529F030936B0020936A0026C044
S11309D010926B0010926A008091680090916900F7
S11309E001968C33910529F09093690080936800F7
S11309F015C0109269001092680080916600909171
S1130A00670001969093670080936600489731F4DD
S1130A1010926700109266000E945C0240916A0086
S1130A2050916B006091680070916900809166003C
S1130A30909167000E944900CD3041F088EE93E028
S1130A400E94AA0560E081E00E948505CF91089587
S1130A50CF930E94A4040E94A404C82F0E947A0188
S1130A600E94490086E990E00E94AA05CF3021F057
S1130A708C2F0E943F04EFCFCF910895662311F08D
S1130A80C09A01C0C098C19882BB8FEF81BBC29A43
S1130A90000000000000C2980895C098C19A11BADD
S1130AA090B3C29A00000000000011BA90B3C2983B
S1130AB099239CF30E943E050895B89AB99ABA9A6C
S1130AC080E190E00E94AA0560E080E30E943E0578
S1130AD085E090E00E94AA0560E080E30E943E0564
S1130AE081E090E00E94AA0560E08CE30E944D053D
S1130AF060E08CE00E944D0560E086E00E944D05B8
S1130B0060E081E00E944D050895CF93C62F98E2DE
S1130B10899FC00D112460E082E00E944D05CC2322
S1130B2031F060E084E10E944D05C150D1F7CF91CE
S1130B300895CF93DF93EC012196FC0180818823F3
S1130B4031F061E00E944D0589918111FACFDF9166
S1130B50CF9108959C0183E083BF83E808C082BFDE
S1130B6098B7916098BFA89508B600FEFDCF2150B4
S1130B703109A8F713BE08950E945D050E94A404DC
S1130B800E94A404811103C00E94D404F9CF8D30C3
S1130B90B9F70E942805F4CF97FB072E16F40094AA
S1130BA007D077FD09D00E94E00507FC05D03EF48C
S1130BB0909581959F4F0895709561957F4F089505
S1130BC0AA1BBB1B51E107C0AA1FBB1FA617B7076F
S1130BD010F0A61BB70B881F991F5A95A9F780958B
S1130BE09095BC01CD010895AEE0B0E0EAEFF5E0E8
S1130BF00C94A3080D891E8986E08C831A830983CB
S1130C008FEF9FE79E838D83AE01475E5F4F6F89B1
S1130C10788DCE0101960E9417062F813885F80140
S1130C20E20FF31F10822E96E4E00C94BF08ACE0B0
S1130C30B0E0EDE1F6E00C9495087C016B018A01CB
S1130C40FC0117821682838181FFBDC1CE0101960A
S1130C504C01F7019381F60193FD859193FF8191F6
S1130C606F01882309F4ABC1853239F493FD859172
S1130C7093FF81916F01853229F4B70190E00E94BE
S1130C80FF07E7CF512C312C20E02032A0F48B3227
S1130C9069F030F4803259F0833269F420612CC059
S1130CA08D3239F0803339F4216026C0226024600B
S1130CB023C0286021C027FD27C030ED380F3A300B
S1130CC078F426FF06C0FAE05F9E300D1124532EFF
S1130CD013C08AE0389E300D1124332E20620CC0DC
S1130CE08E3221F426FD6BC1206406C08C3611F4CB
S1130CF0206802C0883641F4F60193FD859193FF84
S1130D0081916F018111C1CF982F9F7D95549330AC
S1130D1028F40C5F1F4FFFE3F9830DC0833631F0D5
S1130D20833771F0833509F05BC022C0F8018081FC
S1130D3089830E5F1F4F44244394512C540115C0E2
S1130D403801F2E06F0E711CF801A080B18026FF1B
S1130D5003C0652D70E002C06FEF7FEFC5012C87E3
S1130D600E94F4072C0183012C852F77222E17C0B3
S1130D703801F2E06F0E711CF801A080B18026FFEB
S1130D8003C0652D70E002C06FEF7FEFC5012C87B3
S1130D900E94E9072C012C852068222E830123FC64
S1130DA01BC0832D90E048165906B0F4B70180E2C9
S1130DB090E00E94FF073A94F4CFF50127FC859157
S1130DC027FE81915F01B70190E00E94FF07311077
S1130DD03A94F1E04F1A51084114510471F7E5C0F7
S1130DE0843611F0893639F5F80127FF07C0608190
S1130DF07181828193810C5F1F4F08C06081718172
S1130E00072E000C880B990B0E5F1F4F2F76722E46
S1130E1097FF09C090958095709561957F4F8F4F8E
S1130E209F4F2068722E2AE030E0A4010E94370808
S1130E30A82EA81844C0853729F42F7EB22E2AE0A4
S1130E4030E025C0F22FF97FBF2E8F36C1F018F4A1
S1130E50883579F0B4C0803719F0883721F0AFC0F5
S1130E602F2F2061B22EB4FE0DC08B2D8460B82EBE
S1130E7009C024FF0AC09F2F9660B92E06C028E03F
S1130E8030E005C020E130E002C020E132E0F801AA
S1130E90B7FE07C060817181828193810C5F1F4F0F
S1130EA006C06081718180E090E00E5F1F4FA40155
S1130EB00E943708A82EA818FB2DFF777F2E76FEF8
S1130EC00BC0372D3E7FA51450F474FE0AC072FC8B
S1130ED008C0372D3E7E05C0BA2C372D03C0BA2C6E
S1130EE001C0B52C34FF0DC0FE01EA0DF11D808157
S1130EF0803311F4397E09C032FF06C0B394B39431
S1130F0004C0832F867809F0B39433FD13C030FFF7
S1130F1006C05A2CB31418F4530C5B18B32CB31436
S1130F2068F4B70180E290E03C870E94FF07B39425
S1130F303C85F5CFB31410F43B1801C0312C34FFB9
S1130F4012C0B70180E390E03C870E94FF073C8514
S1130F5032FF17C031FD03C088E790E002C088E586
S1130F6090E0B7010CC0832F867859F031FF02C09E
S1130F708BE201C080E237FD8DE2B70190E00E9470
S1130F80FF07A51438F4B70180E390E00E94FF073F
S1130F905A94F7CFAA94F401EA0DF11D8081B701A8
S1130FA090E00E94FF07A110F5CF332009F451CE41
S1130FB0B70180E290E00E94FF073A94F6CFF70170
S1130FC08681978102C08FEF9FEF2C96E2E10C940B
S1130FD0B108FC010590615070400110D8F780956C
S1130FE090958E0F9F1F0895FC01615070400190F1
S1130FF00110D8F7809590958E0F9F1F08950F9339
S11310001F93CF93DF93FB01238121FD03C08FEF57
S11310109FEF28C022FF16C0468157812481358165
S11310204217530744F4A081B1819D012F5F3F4FC4
S1131030318320838C93268137812F5F3F4F378301
S1131040268310C0EB01092F182F0084F185E02DB1
S11310500995892BE1F68E819F8101969F838E836A
S1131060812F902FDF91CF911F910F910895FA0155
S1131070AA27283051F1203181F1E8946F936E7FD3
S11310806E5F7F4F8F4F9F4FAF4FB1E03ED0B4E0C4
S11310903CD0670F781F891F9A1FA11D680F791F05
S11310A08A1F911DA11D6A0F711D811D911DA11D16
S11310B020D009F468943F912AE0269F1124301926
S11310C0305D3193DEF6CF010895462F4770405DC1
S11310D04193B3E00FD0C9F7F6CF462F4F70405D70
S11310E04A3318F0495D31FD4052419302D0A9F7CB
S11310F0EACFB4E0A6959795879577956795BA95C5
S1131100C9F700976105710508959B01AC010A2E8A
S113111006945795479537952795BA95C9F7620F61
S1131120731F841F951FA01D08952F923F924F9205
S11311305F926F927F928F929F92AF92BF92CF9263
S1131140DF92EF92FF920F931F93CF93DF93CDB76C
S1131150DEB7CA1BDB0B0FB6F894DEBF0FBECDBFE4
S113116009942A88398848885F846E847D848C84B5
S11311709B84AA84B984C884DF80EE80FD800C81BE
S11311801B81AA81B981CE0FD11D0FB6F894DEBFA1
S10F11900FBECDBFED010895F894FFCF11
S113119CE0071A00040017003B0037003025643ABE
S11311AC3025643A302564003025643A3025643A9D
S11311BC253264003025643A2532643A25326400C1
S11311CC2532643A3025643A253264002532643A77
S11311DC2532643A302564003025643A2532643A69
S11311EC302564002532643A3025643A3025640095
S11311FC2532643A2532643A253264003025642F52
S113120C3025642F253464003025642F2532642F57
S113121C253464002532642F3025642F2534640072
S10F122C2532642F2532642F2534640021
S9030000FC
