:100000000C942A000C9447000C9447000C94470071
:100010000C9447000C9447000C9447000C94470044
:100020000C9447000C9447000C9447000C94470034
:100030000C9447000C9447000C9447000C94470024
:100040000C9447000C9447000C9447000C94470014
:100050000C94470011241FBECFE5D8E0DEBFCDBF12
:1000600011E0A0E6B0E0EEEBFFE002C005900D92DB
:10007000A632B107D9F721E0A6E2B1E001C01D9296
:10008000AE34B207E1F70E94CA030C94DD070C946A
:1000900000009C0183E083BF83E808C082BF98B75B
:1000A000916098BFA89508B600FEFDCF2150310998
:1000B000A8F713BE0895E82F14BA15BA85B321E046
:1000C00030E0A9010E2E02C0440F551F0A94E2F73A
:1000D000482B45BB94B36C5F7F4F02C0220F331F88
:1000E0006A95E2F7922B94BB95B32095292325BB03
:1000F00093B3892F90E002C095958795EA95E2F732
:1001000021E0822781700895CF92DF92EF92FF92D3
:100110000F931F93CF93DF9300E010E0C12CD12CFD
:1001200016C0FC2EBE01C8010E945B00882331F07E
:10013000F3948E2D880F880F8F0D0DC02196C4303B
:10014000D10579F70F5F1F4F0430110521F0E02E24
:10015000CC2DDD2DE6CFDF91CF911F910F91FF9038
:10016000EF90DF90CF900895662311F0C09A01C000
:10017000C098C19882BB8FEF81BBC29A000000007B
:100180000000C2980895C098C19A11BA90B3C29A5B
:1001900000000000000011BA90B3C29899239CF3AC
:1001A0000E94B4000895B89AB99ABA9A80E190E092
:1001B0000E94490060E080E30E94B40085E090E086
:1001C0000E94490060E080E30E94B40081E090E07A
:1001D0000E94490060E08CE30E94C30060E08CE074
:1001E0000E94C30060E086E00E94C30060E081E0FE
:1001F0000E94C300089560E081E00E94C30008955A
:10020000CF93C62F98E2899FC00D112460E082E051
:100210000E94C300CC2331F060E084E10E94C3005F
:10022000C150D1F7CF910895CF93DF93EC01219680
:10023000FC018081882331F061E00E94C300899134
:100240008111FACFDF91CF9108950F931F93CF9330
:10025000DF938C01EB0160E080E00E940001C801A7
:100260000E94140160E081E00E940001CE010E9422
:100270001401DF91CF911F910F910895AF92BF921A
:10028000CF92DF92EF92FF920F931F93CF937C0157
:1002900062EE70E083EF90E00E9425010E948400EE
:1002A00000E010E06894AA24A1F8B12CCC24C394F7
:1002B000D12C06C00E948400043011050CF044C00B
:1002C0008130D9F4F801EE0FFF1FEE0DFF1DD18232
:1002D000C0820F5F1F4F6BE570E08AE590E00E94DF
:1002E000B4040E948400813029F70E948400C82F42
:1002F0000E94FB00C130C9F3DDCF8230D9F4F80190
:10030000EE0FFF1FEE0DFF1DB182A0820F5F1F4F8A
:1003100067EB70E08AE590E00E94B4040E948400DC
:10032000823041F60E948400C82F0E94FB00C23038
:10033000C9F3C0CF8D3059F08F3061F0803109F0B2
:10034000B9CF8FEF9FEF08C0802F912F05C080E0BD
:1003500090E002C0802F912FCF911F910F91FF90BD
:10036000EF90DF90CF90BF90AF9008956F927F9203
:100370008F929F92AF92BF92CF92DF92EF92FF92B5
:100380000F931F93CF93DF930115110509F4F3C168
:10039000121613060CF0EFC1480179013A01072F3C
:1003A000162F5C010E94FB00F50111821082E3010F
:1003B0006701CC0CDD1CC60CD71C0F2EF2E0EF2E13
:1003C000F1E0FF2EF02D8881998122969F938F93E3
:1003D000FF92EF920F931F930E940505612F702FDC
:1003E000C5010E94F2040F900F900F900F900F9094
:1003F0000F90CC15DD0539F70E94FB00C5010E9466
:10040000D404EC018DED90E00E94D404C817D90704
:1004100051F4F40101900020E9F7319781E490E074
:1004200091838083A8C188ED90E00E94D404C8170E
:10043000D90751F4F40101900020E9F7319782E4E3
:1004400090E09183808397C183ED90E00E94D40473
:10045000C817D90751F4F40101900020E9F731974A
:1004600083E490E09183808386C18EEC90E00E94CB
:10047000D404C817D90751F4F40101900020E9F71A
:10048000319784E490E09183808375C189EC90E09A
:100490000E94D404C817D90751F4F4010190002038
:1004A000E9F7319785E490E09183808364C184EC1F
:1004B00090E00E94D404C817D90751F4F4010190C8
:1004C0000020E9F7319786E490E09183808353C15F
:1004D0008FEB90E00E94D404C817D90751F4F401BF
:1004E00001900020E9F7319787E490E091838083C1
:1004F00042C18AEB90E00E94D404C817D90751F496
:10050000F40101900020E9F7319788E490E09183AD
:10051000808331C185EB90E00E94D404C817D907CD
:1005200051F4F40101900020E9F7319789E490E05B
:100530009183808320C180EB90E00E94D404C8178F
:10054000D90751F4F40101900020E9F731978AE4CA
:1005500090E0918380830FC18BEA90E00E94D404E5
:10056000C817D90751F4F40101900020E9F7319739
:100570008BE490E091838083FEC086EA90E00E9445
:10058000D404C817D90751F4F40101900020E9F709
:1005900031978CE490E091838083EDC081EA90E014
:1005A0000E94D404C817D90751F4F4010190002027
:1005B000E9F731978DE490E091838083DCC08CE98A
:1005C00090E00E94D404C817D90751F4F4010190B7
:1005D0000020E9F731978EE490E091838083CBC0CF
:1005E00087E990E00E94D404C817D90751F4F401B8
:1005F00001900020E9F731978FE490E091838083A8
:10060000BAC082E990E00E94D404C817D90751F417
:10061000F40101900020E9F7319780E590E09183A3
:100620008083A9C08DE890E00E94D404C817D90740
:1006300051F4F40101900020E9F7319781E590E051
:100640009183808398C088E890E00E94D404C81702
:10065000D90751F4F40101900020E9F7319782E5C0
:1006600090E09183808387C083E890E00E94D40467
:10067000C817D90751F4F40101900020E9F7319728
:1006800083E590E09183808376C08EE790E00E94BE
:10069000D404C817D90751F4F40101900020E9F7F8
:1006A000319784E590E09183808365C089E790E08D
:1006B0000E94D404C817D90751F4F4010190002016
:1006C000E9F7319785E590E09183808354C084E712
:1006D00090E00E94D404C817D90751F4F4010190A6
:1006E0000020E9F7319786E590E09183808343C04D
:1006F0008FE690E00E94D404C817D90751F4F401A2
:1007000001900020E9F7319787E590E0918380839D
:1007100032C08AE690E00E94D404C817D90751F489
:10072000F40101900020E9F7319788E590E091838A
:10073000808321C085E690E00E94D404C817D907C1
:1007400051F4F40101900020E9F7319789E590E038
:100750009183808310C080E690E00E94D404C81783
:10076000D90749F4F40101900020E9F731978AE5AF
:1007700090E091838083DF91CF911F910F91FF9043
:10078000EF90DF90CF90BF90AF909F908F907F9031
:100790006F9008953F924F925F926F927F928F92E7
:1007A0009F92AF92BF92CF92DF92EF92FF920F9300
:1007B0001F93CF93DF93CDB7DEB76B970FB6F89447
:1007C000DEBF0FBECDBF0E94D30065E071E085E1C2
:1007D00091E00E942501BB9A1B861C861D861E8601
:1007E000FE013F968DE0DF011D928A95E9F70E9498
:1007F0008400182F86E990E00E9449001D3019F40A
:100800000E94FB0085C0143091F70E94FB008824F1
:100810008394912CE12CF12C5E01BBE0AB0EB11C5A
:100820000F2EF1E15F2EF02D312C412C68946624BF
:1008300065F8712CCE0101960E943E016C010E9468
:10084000FB0085019601AE014F5F5F4F66E271E0EC
:100850008BE291E00E94B601EFEFCE16DE0659F46E
:10086000FFEFEF1AFF0AF50101900020E9F7319739
:100870007182608228C01C141D041CF58FEFE81AD9
:10088000F80AA0E2EA16F10469F4B5018CE291E0FD
:100890000E94F204F501852D11928A95E9F7832CC7
:1008A000942C1DC0A0E1EA16F10469F4B5018DE3B2
:1008B00091E00E94F204F501852D11928A95E9F7E5
:1008C0000EC0CD28F9F0A0E1EA16F10444F4C50108
:1008D0000E94140180ED97E00E9449000DC0C701FD
:1008E0004097409748F4B5018DE391E00E942501BF
:1008F00080ED97E00E9449000E94FB008114910462
:1009000009F098CF6CE271E08DE391E00E9425013F
:1009100080E090E06B960FB6F894DEBF0FBECDBFBF
:10092000DF91CF911F910F91FF90EF90DF90CF90CB
:10093000BF90AF909F908F907F906F905F904F90FF
:100940003F9008959C0182E083BF86EF08C082BF7C
:1009500098B7916098BFA89508B600FEFDCF2150CA
:100960003109A8F713BE0895EF92FF920F931F93DA
:10097000CF93DF931616170684F47B018C01C0E039
:10098000D0E0C39AC8010E94A204C398C8010E9483
:10099000A2042196CE15DF05A1F7DF91CF911F911B
:1009A0000F91FF90EF900895FC0188279927E89414
:1009B00021912032E9F3293010F02E30C8F32B3288
:1009C00041F02D3239F4689404C00E94FD04820F76
:1009D000911D219120532A30C0F31EF490958195EA
:1009E0009F4F0895FB01DC010D900020E9F711975E
:1009F00001900D920020E1F708957AE0979F902DE5
:100A0000879F802D910D11240895AEE0B0E0EBE0BA
:100A1000F5E00C94B4070D891E8986E08C831A8357
:100A200009838FEF9FE79E838D83AE01475E5F4F03
:100A30006F89788DCE0101960E9428052F81388517
:100A4000F801E20FF31F10822E96E4E00C94D00719
:100A5000ACE0B0E0EEE2F5E00C94A6077C016B019F
:100A60008A01FC0117821682838181FFBDC1CE01FC
:100A700001964C01F7019381F60193FD859193FF57
:100A800081916F01882309F4ABC1853239F493FD5C
:100A9000859193FF81916F01853229F4B70190E030
:100AA0000E941007E7CF512C312C20E02032A0F417
:100AB0008B3269F030F4803259F0833269F420616E
:100AC0002CC08D3239F0803339F4216026C0226089
:100AD000246023C0286021C027FD27C030ED380FD7
:100AE0003A3078F426FF06C0FAE05F9E300D1124FC
:100AF000532E13C08AE0389E300D1124332E20620D
:100B00000CC08E3221F426FD6BC1206406C08C36E9
:100B100011F4206802C0883641F4F60193FD8591F6
:100B200093FF81916F018111C1CF982F9F7D9554C3
:100B3000933028F40C5F1F4FFFE3F9830DC0833619
:100B400031F0833771F0833509F05BC022C0F801C2
:100B5000808189830E5F1F4F44244394512C54019C
:100B600015C03801F2E06F0E711CF801A080B18051
:100B700026FF03C0652D70E002C06FEF7FEFC50157
:100B80002C870E9405072C0183012C852F77222EAC
:100B900017C03801F2E06F0E711CF801A080B1801F
:100BA00026FF03C0652D70E002C06FEF7FEFC50127
:100BB0002C870E94FA062C012C852068222E8301A6
:100BC00023FC1BC0832D90E048165906B0F4B701F2
:100BD00080E290E00E9410073A94F4CFF50127FCE0
:100BE000859127FE81915F01B70190E00E94100777
:100BF00031103A94F1E04F1A51084114510471F741
:100C0000E5C0843611F0893639F5F80127FF07C0B1
:100C100060817181828193810C5F1F4F08C0608168
:100C20007181072E000C880B990B0E5F1F4F2F76DA
:100C3000722E97FF09C090958095709561957F4FB2
:100C40008F4F9F4F2068722E2AE030E0A4010E944F
:100C50004807A82EA81844C0853729F42F7EB22E45
:100C60002AE030E025C0F22FF97FBF2E8F36C1F089
:100C700018F4883579F0B4C0803719F0883721F03E
:100C8000AFC02F2F2061B22EB4FE0DC08B2D84601B
:100C9000B82E09C024FF0AC09F2F9660B92E06C047
:100CA00028E030E005C020E130E002C020E132E081
:100CB000F801B7FE07C060817181828193810C5F6A
:100CC0001F4F06C06081718180E090E00E5F1F4F72
:100CD000A4010E944807A82EA818FB2DFF777F2E9D
:100CE00076FE0BC0372D3E7FA51450F474FE0AC06B
:100CF00072FC08C0372D3E7E05C0BA2C372D03C0CC
:100D0000BA2C01C0B52C34FF0DC0FE01EA0DF11D57
:100D10008081803311F4397E09C032FF06C0B3945C
:100D2000B39404C0832F867809F0B39433FD13C0C5
:100D300030FF06C05A2CB31418F4530C5B18B32CB4
:100D4000B31468F4B70180E290E03C870E9410077A
:100D5000B3943C85F5CFB31410F43B1801C0312C8B
:100D600034FF12C0B70180E390E03C870E94100777
:100D70003C8532FF17C031FD03C088E790E002C018
:100D800088E590E0B7010CC0832F867859F031FFD9
:100D900002C08BE201C080E237FD8DE2B70190E036
:100DA0000E941007A51438F4B70180E390E00E9478
:100DB00010075A94F7CFAA94F401EA0DF11D80812F
:100DC000B70190E00E941007A110F5CF332009F47D
:100DD00051CEB70180E290E00E9410073A94F6CF1E
:100DE000F7018681978102C08FEF9FEF2C96E2E199
:100DF0000C94C207FC010590615070400110D8F7B7
:100E0000809590958E0F9F1F0895FC016150704052
:100E100001900110D8F7809590958E0F9F1F08952F
:100E20000F931F93CF93DF93FB01238121FD03C019
:100E30008FEF9FEF28C022FF16C046815781248183
:100E400035814217530744F4A081B1819D012F5F82
:100E50003F4F318320838C93268137812F5F3F4F13
:100E60003783268310C0EB01092F182F0084F185EA
:100E7000E02D0995892BE1F68E819F8101969F8354
:100E80008E83812F902FDF91CF911F910F91089525
:100E9000FA01AA27283051F1203181F1E8946F93AB
:100EA0006E7F6E5F7F4F8F4F9F4FAF4FB1E03ED051
:100EB000B4E03CD0670F781F891F9A1FA11D680FEF
:100EC000791F8A1F911DA11D6A0F711D811D911D22
:100ED000A11D20D009F468943F912AE0269F112497
:100EE0003019305D3193DEF6CF010895462F4770FB
:100EF000405D4193B3E00FD0C9F7F6CF462F4F7056
:100F0000405D4A3318F0495D31FD4052419302D0B3
:100F1000A9F7EACFB4E0A695979587957795679559
:100F2000BA95C9F700976105710508959B01AC0159
:100F30000A2E06945795479537952795BA95C9F780
:100F4000620F731F841F951FA01D08952F923F925B
:100F50004F925F926F927F928F929F92AF92BF92C9
:100F6000CF92DF92EF92FF920F931F93CF93DF9375
:100F7000CDB7DEB7CA1BDB0B0FB6F894DEBF0FBED2
:100F8000CDBF09942A88398848885F846E847D841F
:100F90008C849B84AA84B984C884DF80EE80FD8021
:100FA0000C811B81AA81B981CE0FD11D0FB6F89497
:0E0FB000DEBF0FBECDBFED010895F894FFCF58
:100FBE00323231310032313232003231313200319F
:100FCE003232000031313132003131320000320024
:100FDE000000003131310000313231000032323147
:100FEE003200313232310032323200003231000002
:100FFE000032320000003132313100323132000025
:10100E0031323232003131000000313131310032B3
:10101E003231000031313231003100000000323106
:10102E003100003231323100323131310031320093
:10103E0000002320454E4420434841527C2A20453F
:10104E004E440031202E7C32202D7C442053544FB0
:10105E0050002564005072657373202A20746F202F
:10106E0071756974005072657373204120746F201E
:06107E007374617274003E
:00000001FF
